{
  "contractName": "MemoryProof",
  "abi": [
    {
      "inputs": [
        {
          "internalType": "uint256",
          "name": "",
          "type": "uint256"
        }
      ],
      "name": "records",
      "outputs": [
        {
          "internalType": "address",
          "name": "user",
          "type": "address"
        },
        {
          "internalType": "string",
          "name": "npcId",
          "type": "string"
        },
        {
          "internalType": "bytes32",
          "name": "memoryHash",
          "type": "bytes32"
        },
        {
          "internalType": "uint256",
          "name": "timestamp",
          "type": "uint256"
        }
      ],
      "stateMutability": "view",
      "type": "function",
      "constant": true
    },
    {
      "inputs": [
        {
          "internalType": "string",
          "name": "npcId",
          "type": "string"
        },
        {
          "internalType": "bytes32",
          "name": "memoryHash",
          "type": "bytes32"
        }
      ],
      "name": "storeMemory",
      "outputs": [],
      "stateMutability": "nonpayable",
      "type": "function"
    },
    {
      "inputs": [
        {
          "internalType": "uint256",
          "name": "index",
          "type": "uint256"
        }
      ],
      "name": "getRecord",
      "outputs": [
        {
          "internalType": "address",
          "name": "",
          "type": "address"
        },
        {
          "internalType": "string",
          "name": "",
          "type": "string"
        },
        {
          "internalType": "bytes32",
          "name": "",
          "type": "bytes32"
        },
        {
          "internalType": "uint256",
          "name": "",
          "type": "uint256"
        }
      ],
      "stateMutability": "view",
      "type": "function",
      "constant": true
    }
  ],
  "bytecode": "0x608060405234801561000f575f80fd5b506105cc8061001d5f395ff3fe608060405234801561000f575f80fd5b506004361061003f575f3560e01c806303e9e60914610043578063344610671461006f57806396aa87d814610082575b5f80fd5b61005661005136600461033b565b610097565b6040516100669493929190610352565b60405180910390f35b61005661007d36600461033b565b6101a7565b6100956100903660046103bb565b610270565b005b5f60605f805f8086815481106100af576100af61042c565b5f918252602091829020604080516080810190915260049092020180546001600160a01b0316825260018101805492939192918401916100ee90610440565b80601f016020809104026020016040519081016040528092919081815260200182805461011a90610440565b80156101655780601f1061013c57610100808354040283529160200191610165565b820191905f5260205f20905b81548152906001019060200180831161014857829003601f168201915b50505050508152602001600282015481526020016003820154815250509050805f01518160200151826040015183606001519450945094509450509193509193565b5f81815481106101b5575f80fd5b5f918252602090912060049091020180546001820180546001600160a01b039092169350906101e390610440565b80601f016020809104026020016040519081016040528092919081815260200182805461020f90610440565b801561025a5780601f106102315761010080835404028352916020019161025a565b820191905f5260205f20905b81548152906001019060200180831161023d57829003601f168201915b5050505050908060020154908060030154905084565b5f6040518060800160405280336001600160a01b0316815260200185858080601f0160208091040260200160405190810160405280939291908181526020018383808284375f92018290525093855250505060208083018690524260409093019290925283546001808201865594825290829020835160049092020180546001600160a01b0319166001600160a01b0390921691909117815590820151919290919082019061031f90826104da565b5060408201518160020155606082015181600301555050505050565b5f6020828403121561034b575f80fd5b5035919050565b60018060a01b03851681525f602060808184015285518060808501525f5b8181101561038c5787810183015185820160a001528201610370565b505f60a0828601015260a0601f19601f8301168501019250505083604083015282606083015295945050505050565b5f805f604084860312156103cd575f80fd5b833567ffffffffffffffff808211156103e4575f80fd5b818601915086601f8301126103f7575f80fd5b813581811115610405575f80fd5b876020828501011115610416575f80fd5b6020928301989097509590910135949350505050565b634e487b7160e01b5f52603260045260245ffd5b600181811c9082168061045457607f821691505b60208210810361047257634e487b7160e01b5f52602260045260245ffd5b50919050565b634e487b7160e01b5f52604160045260245ffd5b601f8211156104d5575f81815260208120601f850160051c810160208610156104b25750805b601f850160051c820191505b818110156104d1578281556001016104be565b5050505b505050565b815167ffffffffffffffff8111156104f4576104f4610478565b610508816105028454610440565b8461048c565b602080601f83116001811461053b575f84156105245750858301515b5f19600386901b1c1916600185901b1785556104d1565b5f85815260208120601f198616915b828110156105695788860151825594840194600190910190840161054a565b508582101561058657878501515f19600388901b60f8161c191681555b5050505050600190811b0190555056fea264697066735822122033c54f55891e93096b0b4704c9d0280eb312a98758bcff2e1f22222a1d818f1c64736f6c63430008150033",
  "immutableReferences": {},
  "source": "// SPDX-License-Identifier: MIT\r\npragma solidity ^0.8.0;\r\n\r\ncontract MemoryProof {\r\n    struct MemoryRecord {\r\n        address user;\r\n        string npcId;\r\n        bytes32 memoryHash;\r\n        uint256 timestamp;\r\n    }\r\n\r\n    MemoryRecord[] public records;\r\n\r\n    function storeMemory(string calldata npcId, bytes32 memoryHash) external {\r\n        records.push(MemoryRecord(msg.sender, npcId, memoryHash, block.timestamp));\r\n    }\r\n\r\n    function getRecord(uint index) external view returns (address, string memory, bytes32, uint256) {\r\n        MemoryRecord memory rec = records[index];\r\n        return (rec.user, rec.npcId, rec.memoryHash, rec.timestamp);\r\n    }\r\n}\r\n",
  "sourcePath": "C:\\Users\\pokem\\Downloads\\bnbhack\\BNB-AI-Hack\\contracts\\MemoryProof.sol",
  "compiler": {
    "name": "solc",
    "version": "0.8.21+commit.d9974bed.Emscripten.clang"
  },
  "schemaVersion": "3.4.16",
  "updatedAt": "2025-05-24T18:49:57.967Z",
  "networkType": "ethereum",
  "devdoc": {
    "kind": "dev",
    "methods": {},
    "version": 1
  },
  "userdoc": {
    "kind": "user",
    "methods": {},
    "version": 1
  }
}