{
  "contractName": "NPCTraitStorage",
  "abi": [
    {
      "anonymous": false,
      "inputs": [
        {
          "indexed": true,
          "internalType": "string",
          "name": "npcId",
          "type": "string"
        },
        {
          "indexed": false,
          "internalType": "string",
          "name": "name",
          "type": "string"
        },
        {
          "indexed": false,
          "internalType": "string",
          "name": "description",
          "type": "string"
        },
        {
          "indexed": false,
          "internalType": "string",
          "name": "modelPath",
          "type": "string"
        },
        {
          "indexed": false,
          "internalType": "string",
          "name": "startingPrompt",
          "type": "string"
        }
      ],
      "name": "NPCCreated",
      "type": "event"
    },
    {
      "anonymous": false,
      "inputs": [
        {
          "indexed": true,
          "internalType": "string",
          "name": "npcId",
          "type": "string"
        },
        {
          "indexed": false,
          "internalType": "uint256",
          "name": "experienceLevel",
          "type": "uint256"
        },
        {
          "indexed": false,
          "internalType": "uint256",
          "name": "timestamp",
          "type": "uint256"
        }
      ],
      "name": "TraitsUpdated",
      "type": "event"
    },
    {
      "inputs": [
        {
          "internalType": "string",
          "name": "",
          "type": "string"
        }
      ],
      "name": "npcExists",
      "outputs": [
        {
          "internalType": "bool",
          "name": "",
          "type": "bool"
        }
      ],
      "stateMutability": "view",
      "type": "function",
      "constant": true
    },
    {
      "inputs": [
        {
          "internalType": "string",
          "name": "",
          "type": "string"
        }
      ],
      "name": "npcTraits",
      "outputs": [
        {
          "internalType": "string",
          "name": "name",
          "type": "string"
        },
        {
          "internalType": "string",
          "name": "description",
          "type": "string"
        },
        {
          "internalType": "string",
          "name": "modelPath",
          "type": "string"
        },
        {
          "internalType": "string",
          "name": "startingPrompt",
          "type": "string"
        },
        {
          "internalType": "string",
          "name": "personality",
          "type": "string"
        },
        {
          "internalType": "string",
          "name": "attributes",
          "type": "string"
        },
        {
          "internalType": "uint256",
          "name": "experienceLevel",
          "type": "uint256"
        },
        {
          "internalType": "uint256",
          "name": "lastUpdated",
          "type": "uint256"
        }
      ],
      "stateMutability": "view",
      "type": "function",
      "constant": true
    },
    {
      "inputs": [
        {
          "internalType": "string",
          "name": "npcId",
          "type": "string"
        },
        {
          "internalType": "string",
          "name": "name",
          "type": "string"
        },
        {
          "internalType": "string",
          "name": "description",
          "type": "string"
        },
        {
          "internalType": "string",
          "name": "modelPath",
          "type": "string"
        },
        {
          "internalType": "string",
          "name": "startingPrompt",
          "type": "string"
        },
        {
          "internalType": "string",
          "name": "personality",
          "type": "string"
        },
        {
          "internalType": "string",
          "name": "attributes",
          "type": "string"
        }
      ],
      "name": "createNPC",
      "outputs": [],
      "stateMutability": "nonpayable",
      "type": "function"
    },
    {
      "inputs": [
        {
          "internalType": "string",
          "name": "npcId",
          "type": "string"
        },
        {
          "internalType": "string",
          "name": "personality",
          "type": "string"
        },
        {
          "internalType": "string",
          "name": "attributes",
          "type": "string"
        },
        {
          "internalType": "uint256",
          "name": "experienceLevel",
          "type": "uint256"
        }
      ],
      "name": "updateTraits",
      "outputs": [],
      "stateMutability": "nonpayable",
      "type": "function"
    },
    {
      "inputs": [
        {
          "internalType": "string",
          "name": "npcId",
          "type": "string"
        }
      ],
      "name": "getTraits",
      "outputs": [
        {
          "components": [
            {
              "internalType": "string",
              "name": "name",
              "type": "string"
            },
            {
              "internalType": "string",
              "name": "description",
              "type": "string"
            },
            {
              "internalType": "string",
              "name": "modelPath",
              "type": "string"
            },
            {
              "internalType": "string",
              "name": "startingPrompt",
              "type": "string"
            },
            {
              "internalType": "string",
              "name": "personality",
              "type": "string"
            },
            {
              "internalType": "string",
              "name": "attributes",
              "type": "string"
            },
            {
              "internalType": "uint256",
              "name": "experienceLevel",
              "type": "uint256"
            },
            {
              "internalType": "uint256",
              "name": "lastUpdated",
              "type": "uint256"
            }
          ],
          "internalType": "struct NPCTraitStorage.NPCTraits",
          "name": "",
          "type": "tuple"
        }
      ],
      "stateMutability": "view",
      "type": "function",
      "constant": true
    }
  ],
  "bytecode": "0x608060405234801561000f575f80fd5b506111b18061001d5f395ff3fe608060405234801561000f575f80fd5b5060043610610055575f3560e01c80634caee84714610059578063787af634146100825780637d117fae14610097578063cdeff952146100be578063fc8351e5146100d1575b5f80fd5b61006c610067366004610c48565b61010f565b6040516100799190610ccf565b60405180910390f35b610095610090366004610d9f565b610561565b005b6100aa6100a5366004610c48565b610739565b604051610079989796959493929190610eae565b6100956100cc366004610f3d565b610aa7565b6100ff6100df366004610c48565b805160208183018101805160018252928201919093012091525460ff1681565b6040519015158152602001610079565b6101556040518061010001604052806060815260200160608152602001606081526020016060815260200160608152602001606081526020015f81526020015f81525090565b6001826040516101659190610fc7565b9081526040519081900360200190205460ff166101be5760405162461bcd60e51b8152602060048201526012602482015271139410c8191bd95cc81b9bdd08195e1a5cdd60721b60448201526064015b60405180910390fd5b5f826040516101cd9190610fc7565b9081526020016040518091039020604051806101000160405290815f820180546101f690610fe2565b80601f016020809104026020016040519081016040528092919081815260200182805461022290610fe2565b801561026d5780601f106102445761010080835404028352916020019161026d565b820191905f5260205f20905b81548152906001019060200180831161025057829003601f168201915b5050505050815260200160018201805461028690610fe2565b80601f01602080910402602001604051908101604052809291908181526020018280546102b290610fe2565b80156102fd5780601f106102d4576101008083540402835291602001916102fd565b820191905f5260205f20905b8154815290600101906020018083116102e057829003601f168201915b5050505050815260200160028201805461031690610fe2565b80601f016020809104026020016040519081016040528092919081815260200182805461034290610fe2565b801561038d5780601f106103645761010080835404028352916020019161038d565b820191905f5260205f20905b81548152906001019060200180831161037057829003601f168201915b505050505081526020016003820180546103a690610fe2565b80601f01602080910402602001604051908101604052809291908181526020018280546103d290610fe2565b801561041d5780601f106103f45761010080835404028352916020019161041d565b820191905f5260205f20905b81548152906001019060200180831161040057829003601f168201915b5050505050815260200160048201805461043690610fe2565b80601f016020809104026020016040519081016040528092919081815260200182805461046290610fe2565b80156104ad5780601f10610484576101008083540402835291602001916104ad565b820191905f5260205f20905b81548152906001019060200180831161049057829003601f168201915b505050505081526020016005820180546104c690610fe2565b80601f01602080910402602001604051908101604052809291908181526020018280546104f290610fe2565b801561053d5780601f106105145761010080835404028352916020019161053d565b820191905f5260205f20905b81548152906001019060200180831161052057829003601f168201915b50505050508152602001600682015481526020016007820154815250509050919050565b6001876040516105719190610fc7565b9081526040519081900360200190205460ff16156105c65760405162461bcd60e51b81526020600482015260126024820152714e504320616c72656164792065786973747360701b60448201526064016101b5565b60405180610100016040528087815260200186815260200185815260200184815260200183815260200182815260200160018152602001428152505f886040516106109190610fc7565b9081526040519081900360200190208151819061062d9082611068565b50602082015160018201906106429082611068565b50604082015160028201906106579082611068565b506060820151600382019061066c9082611068565b50608082015160048201906106819082611068565b5060a082015160058201906106969082611068565b5060c0820151816006015560e08201518160070155905050600180886040516106bf9190610fc7565b908152604051908190036020018120805492151560ff19909316929092179091556106eb908890610fc7565b60405180910390207f46c61a01110134910e03db384bc81552483350d2f8c7564aefd89e2462f7adaf878787876040516107289493929190611124565b60405180910390a250505050505050565b80516020818301810180515f8252928201919093012091528054819061075e90610fe2565b80601f016020809104026020016040519081016040528092919081815260200182805461078a90610fe2565b80156107d55780601f106107ac576101008083540402835291602001916107d5565b820191905f5260205f20905b8154815290600101906020018083116107b857829003601f168201915b5050505050908060010180546107ea90610fe2565b80601f016020809104026020016040519081016040528092919081815260200182805461081690610fe2565b80156108615780601f1061083857610100808354040283529160200191610861565b820191905f5260205f20905b81548152906001019060200180831161084457829003601f168201915b50505050509080600201805461087690610fe2565b80601f01602080910402602001604051908101604052809291908181526020018280546108a290610fe2565b80156108ed5780601f106108c4576101008083540402835291602001916108ed565b820191905f5260205f20905b8154815290600101906020018083116108d057829003601f168201915b50505050509080600301805461090290610fe2565b80601f016020809104026020016040519081016040528092919081815260200182805461092e90610fe2565b80156109795780601f1061095057610100808354040283529160200191610979565b820191905f5260205f20905b81548152906001019060200180831161095c57829003601f168201915b50505050509080600401805461098e90610fe2565b80601f01602080910402602001604051908101604052809291908181526020018280546109ba90610fe2565b8015610a055780601f106109dc57610100808354040283529160200191610a05565b820191905f5260205f20905b8154815290600101906020018083116109e857829003601f168201915b505050505090806005018054610a1a90610fe2565b80601f0160208091040260200160405190810160405280929190818152602001828054610a4690610fe2565b8015610a915780601f10610a6857610100808354040283529160200191610a91565b820191905f5260205f20905b815481529060010190602001808311610a7457829003601f168201915b5050505050908060060154908060070154905088565b600184604051610ab79190610fc7565b9081526040519081900360200190205460ff16610b0b5760405162461bcd60e51b8152602060048201526012602482015271139410c8191bd95cc81b9bdd08195e1a5cdd60721b60448201526064016101b5565b5f8085604051610b1b9190610fc7565b908152604051908190036020019020905060048101610b3a8582611068565b5060058101610b498482611068565b5060068101829055426007820155604051610b65908690610fc7565b60408051918290038220848352426020840152917fbe10eda48a301bab7bb470845317d3da3ccc111a3b584fd61d86aba447261c1a910160405180910390a25050505050565b634e487b7160e01b5f52604160045260245ffd5b5f82601f830112610bce575f80fd5b813567ffffffffffffffff80821115610be957610be9610bab565b604051601f8301601f19908116603f01168101908282118183101715610c1157610c11610bab565b81604052838152866020858801011115610c29575f80fd5b836020870160208301375f602085830101528094505050505092915050565b5f60208284031215610c58575f80fd5b813567ffffffffffffffff811115610c6e575f80fd5b610c7a84828501610bbf565b949350505050565b5f5b83811015610c9c578181015183820152602001610c84565b50505f910152565b5f8151808452610cbb816020860160208601610c82565b601f01601f19169290920160200192915050565b602081525f8251610100806020850152610ced610120850183610ca4565b91506020850151601f1980868503016040870152610d0b8483610ca4565b93506040870151915080868503016060870152610d288483610ca4565b93506060870151915080868503016080870152610d458483610ca4565b935060808701519150808685030160a0870152610d628483610ca4565b935060a08701519150808685030160c087015250610d808382610ca4565b60c087015160e087810191909152909601519190940152509192915050565b5f805f805f805f60e0888a031215610db5575f80fd5b873567ffffffffffffffff80821115610dcc575f80fd5b610dd88b838c01610bbf565b985060208a0135915080821115610ded575f80fd5b610df98b838c01610bbf565b975060408a0135915080821115610e0e575f80fd5b610e1a8b838c01610bbf565b965060608a0135915080821115610e2f575f80fd5b610e3b8b838c01610bbf565b955060808a0135915080821115610e50575f80fd5b610e5c8b838c01610bbf565b945060a08a0135915080821115610e71575f80fd5b610e7d8b838c01610bbf565b935060c08a0135915080821115610e92575f80fd5b50610e9f8a828b01610bbf565b91505092959891949750929550565b5f610100808352610ec18184018c610ca4565b90508281036020840152610ed5818b610ca4565b90508281036040840152610ee9818a610ca4565b90508281036060840152610efd8189610ca4565b90508281036080840152610f118188610ca4565b905082810360a0840152610f258187610ca4565b60c0840195909552505060e001529695505050505050565b5f805f8060808587031215610f50575f80fd5b843567ffffffffffffffff80821115610f67575f80fd5b610f7388838901610bbf565b95506020870135915080821115610f88575f80fd5b610f9488838901610bbf565b94506040870135915080821115610fa9575f80fd5b50610fb687828801610bbf565b949793965093946060013593505050565b5f8251610fd8818460208701610c82565b9190910192915050565b600181811c90821680610ff657607f821691505b60208210810361101457634e487b7160e01b5f52602260045260245ffd5b50919050565b601f821115611063575f81815260208120601f850160051c810160208610156110405750805b601f850160051c820191505b8181101561105f5782815560010161104c565b5050505b505050565b815167ffffffffffffffff81111561108257611082610bab565b611096816110908454610fe2565b8461101a565b602080601f8311600181146110c9575f84156110b25750858301515b5f19600386901b1c1916600185901b17855561105f565b5f85815260208120601f198616915b828110156110f7578886015182559484019460019091019084016110d8565b508582101561111457878501515f19600388901b60f8161c191681555b5050505050600190811b01905550565b608081525f6111366080830187610ca4565b82810360208401526111488187610ca4565b9050828103604084015261115c8186610ca4565b905082810360608401526111708185610ca4565b97965050505050505056fea264697066735822122054f2cb8b9c1350401c3d0ca3ab7cb07db4547e9800eb5aab6b2e99ecb7bdfdd564736f6c63430008150033",
  "immutableReferences": {},
  "source": "// SPDX-License-Identifier: MIT\r\npragma solidity ^0.8.0;\r\n\r\ncontract NPCTraitStorage {\r\n    struct NPCTraits {\r\n        string name;               // IMMUTABLE (e.g., \"Wanda\")\r\n        string description;        // IMMUTABLE\r\n        string modelPath;          // IMMUTABLE\r\n        string startingPrompt;     // IMMUTABLE\r\n        string personality;        // Mutable (e.g., \"mystical, wise\")\r\n        string attributes;         // Mutable, comma-separated (e.g., \"Mystical,Wise\")\r\n        uint256 experienceLevel;   // Mutable\r\n        uint256 lastUpdated;       // Mutable\r\n    }\r\n    \r\n    mapping(string => NPCTraits) public npcTraits;\r\n    mapping(string => bool) public npcExists;\r\n    \r\n    event NPCCreated(\r\n        string indexed npcId,\r\n        string name,\r\n        string description,\r\n        string modelPath,\r\n        string startingPrompt\r\n    );\r\n    \r\n    event TraitsUpdated(string indexed npcId, uint256 experienceLevel, uint256 timestamp);\r\n    \r\n    //  CREATE NPC: Set immutable fields\r\n    function createNPC(\r\n        string memory npcId,\r\n        string memory name,\r\n        string memory description,\r\n        string memory modelPath,\r\n        string memory startingPrompt,\r\n        string memory personality,\r\n        string memory attributes\r\n    ) external {\r\n        require(!npcExists[npcId], \"NPC already exists\");\r\n        \r\n        npcTraits[npcId] = NPCTraits(\r\n            name,\r\n            description,\r\n            modelPath,\r\n            startingPrompt,\r\n            personality,\r\n            attributes,\r\n            1, // Initial experienceLevel\r\n            block.timestamp\r\n        );\r\n        \r\n        npcExists[npcId] = true;\r\n        emit NPCCreated(npcId, name, description, modelPath, startingPrompt);\r\n    }\r\n    \r\n    //  UPDATE TRAITS: Modify mutable fields\r\n    function updateTraits(\r\n        string memory npcId,\r\n        string memory personality,\r\n        string memory attributes,\r\n        uint256 experienceLevel\r\n    ) external {\r\n        require(npcExists[npcId], \"NPC does not exist\");\r\n        \r\n        NPCTraits storage traits = npcTraits[npcId];\r\n        traits.personality = personality;\r\n        traits.attributes = attributes;\r\n        traits.experienceLevel = experienceLevel;\r\n        traits.lastUpdated = block.timestamp;\r\n        \r\n        emit TraitsUpdated(npcId, experienceLevel, block.timestamp);\r\n    }\r\n    \r\n    //  GET TRAITS: Retrieve all traits\r\n    function getTraits(string memory npcId) external view returns (NPCTraits memory) {\r\n        require(npcExists[npcId], \"NPC does not exist\");\r\n        return npcTraits[npcId];\r\n    }\r\n}\r\n",
  "sourcePath": "C:\\Users\\pokem\\Downloads\\bnbhack\\BNB-AI-Hack\\contracts\\NPCTraitStorage.sol",
  "compiler": {
    "name": "solc",
    "version": "0.8.21+commit.d9974bed.Emscripten.clang"
  },
  "schemaVersion": "3.4.16",
  "updatedAt": "2025-05-24T18:50:20.402Z",
  "networkType": "ethereum",
  "devdoc": {
    "kind": "dev",
    "methods": {},
    "version": 1
  },
  "userdoc": {
    "kind": "user",
    "methods": {},
    "version": 1
  }
}